:100000000C9455020C949C020C949C020C949C023F
:100010000C949C020C949C020C949C020C949C02E8
:100020000C949C020C949C020C94122D0C94E42DC4
:100030000C942F280C949C020C949C020C949C020F
:100040000C949C020C949C020C949C020C949C02B8
:100050000C949C020C94A4280C949C020C949C027A
:100060000C949C020C949C020C949C020C949C0298
:100070000C949C020C949C020C949C020C949C0288
:100080000C949C020C949C020C949C020C949C0278
:100090000C949C020C949C020C949C020C949C0268
:1000A0000C949C020C949C020C949C02AF04AF0430
:1000B000E104E1042E054C056D066D065705EC05BF
:1000C000FD05FD055D066D066D0666060D070D074F
:1000D0001F071F0716071F071F071F070D070D071D
:1000E0001B071F071F071B07282214223322382251
:1000F0003D22422247224C22512256225B2260227C
:1001000065226A226F22742279227E22832288222B
:100110008D22922297229C22A122A622AB22B022DB
:10012000B522BA22BF22C422C922CE22D322D8228B
:10013000DD22E222E722EC22512E782E702F782E3B
:10014000702FC42EE72E702F3E2F4D2F29001E003A
:100150001F0020002100220023002400250026008B
:1001600027002D002E002A002B0014001A00080082
:10017000150017001C0018000C00120013002F00BF
:1001800030003100390000000400160007000900AB
:100190000A000B000D000E000F0033003400280091
:1001A0000000E1001D001B00060019000500110001
:1001B00010003600370038000000E500E000E300E2
:1001C000E2000000000000002C0000000000E6003B
:1001D000E70000000151E400005C3A003B003C00F5
:1001E0003D003E003F00400041004200430044000B
:1001F00045004C000100C35CC45CC65CC75CC85CC5
:10020000C95CCA5CCB5C0100520001000100010026
:1002100001000000010001000100010001000100D7
:1002200001000100500051004F00010000000100DA
:1002300001000100010001000100010001000100B6
:1002400001000100000001000100010001000000A8
:10025000000000000100000000000100010000009B
:10026000010001000001010101010101010102027F
:100270000202020202020203030303030303030454
:10028000040404040404050505050506060606061F
:10029000070707070708080808090909090A0A0AD9
:1002A0000B0B0B0C0C0C0D0D0D0E0E0E0F0F0F107B
:1002B0001011111112121313141415151616171705
:1002C000181819191A1A1B1B1C1D1D1E1E1F202071
:1002D000212222232424252626272829292A2B2CBB
:1002E0002D2D2E2F30313232333435363738393ADE
:1002F0003B3C3D3E3F404142434445464748494AD6
:100300004C4D4E4F50515354555658595A5B5D5EA3
:100310005F616264656668696B6C6D6F707273753E
:1003200077787A7B7D7E8082838587888A8C8E8FA2
:1003300091939596989A9C9EA0A2A3A5A7A9ABADD0
:10034000AFB1B3B5B7BABCBEC0C2C4C6C9CBCDCFBE
:10035000D1D4D6D8DBDDDFE2E4E7E9EBEEF0F3F56C
:10036000F8FAFDFF1E0342004D0036003000200069
:10037000520047004200200050004F004B00450053
:100380005200000018034B0050002000520065008E
:100390007000750062006C006900630000000403D7
:1003A000090409023B00020100A0FA09040000014F
:1003B000030101000921110100012240000705810C
:1003C0000308000A090401000103000000092111CB
:1003D000010001227B000705820320000A120100B0
:1003E0000200000008504B8DEF01000102000105E2
:1003F000010902A10185020901A1000509190129CC
:1004000008150025019508750181020501093009CB
:10041000311581257F9502750881060938158125DA
:100420007F950175088106050C0A38021581257F24
:10043000950175088106C0C005010980A1018503E9
:1004400019012AB700150126B70095017510810022
:10045000C0050C0901A101850419012AA00215019A
:1004600026A002950175108100C005010906A101B1
:10047000050719E029E71500250195087501810296
:100480009501750881010507190029FF150026FF50
:10049000009506750881000508190129059505755F
:1004A000019102950175039101C011241FBECFEF88
:1004B000DAE0DEBFCDBF04B603FE27C08091C004E2
:1004C0009091C104A091C204B091C3048730904BB5
:1004D000A740B04BD1F41092C0041092C104109206
:1004E000C2041092C30414BE84B7877F84BF0FB6C2
:1004F000F894A895809160008861809360001092C4
:1005000060000FBEE0E0F8E3099512E0A0E0B1E082
:10051000E6EFF1E602C005900D92A63BB107D9F7D0
:1005200024E0A6EBB2E001C01D92A03CB207E1F7C7
:100530000E94EE120C94F9300C94000081E00895B2
:1005400081E008950C94A00208950C94A4021F93D6
:10055000CF93DF9300D000D01F92CDB7DEB7498391
:100560005A836B833091B80289819A81311114C00A
:10057000662359F0222349F00E94B108182F682FF2
:1005800089819A810E945A0803C00E948508182F09
:1005900069817A81812F04C00E94B10869817A81C2
:1005A0000F900F900F900F900F90DF91CF911F91B0
:1005B0000C94510FFC01262F40815181628173817F
:1005C00084810C94A70281E00895CF93DF93EC011E
:1005D00060E00E94DA02BE01DF91CF910C94A50287
:1005E0000E9467110E946A030E9401230C94A411C7
:1005F0000C94A01108950E94FB060E94FA022FEFAE
:1006000084E39CE0215080409040E1F700C000006E
:100610000C94CA280F931F93CF93DF938C0161E052
:100620000E94DA02EC01B8010E94A202882309F4B8
:1006300044C0B801CE010E947A258823F1F1B801A7
:10064000CE010E94CC258823C1F1B801CE010E94C1
:10065000FE26882391F1B801CE010E944024882310
:1006600061F1F8018281882309F1CB358DE5D80746
:10067000C1F050F4C115FCE5DF0781F0CF3DDC454A
:10068000A9F40E94460E19C0CC35EDE5DE0761F0F5
:10069000CD35DD4559F40E94D00C08C00E94FB0204
:1006A0000CC00E94D90C02C00E94DC0CC801DF9172
:1006B000CF911F910F910C949E0280E0DF91CF911A
:1006C0001F910F91089508950C94630381E008959C
:1006D0000C9466030895CF93C82F0E9464038C2F57
:1006E0000E946803CF910895CF93DF93CDB7DEB713
:1006F0002B970FB6F894DEBF0FBECDBF4F83588740
:1007000069877A878B8761110E94FF0C9E012F5F9A
:100710003F4F86E0F90111928A95E9F785E0FE01E5
:100720003796D90101900D928A95E1F789819A81D6
:100730004C815D81452B31F09F3F31F491E08F3F3B
:1007400019F403C091E001C090E090FF09C0498115
:100750005A816B817C818D819E810E94FF0B05C037
:10076000C9010E94E3028111F2CF2B960FB6F894D3
:10077000DEBF0FBECDBFDF91CF910895FC01808118
:1007800091810E94F3080895CF93882309F450C003
:10079000C82F8CEF8C0F813AD0F46C2F809113020C
:1007A000909114020E949127882349F06C2F809128
:1007B0001302909114020E94C9270E94310D6C2FE0
:1007C00080911302909114020E94C7270CC080E20E
:1007D0008C0F883058F4C77081E001C0880FCA952B
:1007E000EAF70E94E20CCF910C94310DEBE5EC0F8F
:1007F000E33040F4F0E0E15AFD4F808190E0CF918A
:100800000C945927E8E5EC0FE73150F4F0E0EE0FD7
:10081000FF1FEF5CFD4F80819181CF910C946F277A
:10082000CD3E30F08C2F0E947B13CF910C944D1451
:10083000CF910895882389F19CEF980F913A40F465
:10084000682F80911302909114020E94C9270DC055
:1008500090E2980F983058F4877091E001C0990F9A
:100860008A95EAF7892F0E94E80C0C94310D9BE5DC
:10087000980F933020F480E090E00C94592798E58D
:10088000980F973120F480E090E00C946F278D3E14
:1008900020F00E94D6130C944D1408951F93CF930B
:1008A000DF93182FEB010E94C403209741F08FE9DA
:1008B0009FE00197F1F700C000002197F6CF812F4C
:1008C000DF91CF911F910C941A04893319F060E0E5
:1008D00070E002C060E570E00C944E04882321F0C3
:1008E0000E94E20C0C94310D0895882321F00E949F
:1008F000E80C0C94310D0895CF92DF92EF92FF92A5
:100900000F931F93CF93DF937C01062FC72FFC011A
:10091000D281158112951F700E94B70C882399F01F
:10092000DD2389F08C2F807F803421F080E2800FDE
:10093000883048F082E00E94810D0E94B70C91E05F
:10094000D82ED92601C0D12CCC2EC2948FE0C8223B
:100950008C2D90E0FC01EA5AFF4F0C94EB2F8C2F6A
:10096000807FCF70882311F0C295C07FDD2399F07E
:10097000CC2309F48DC180E2800F883010F0011182
:1009800004C08C2F0E94E20C03C08C2F0E94F20C3A
:100990000E94310D7DC1802F0E941A04CC2309F4DE
:1009A0009CC180E2800F883010F0011104C08C2FB0
:1009B0000E94E80C03C08C2F0E94F80C0E94310D9D
:1009C0008CC18C2F807FCF70803211F0C295C07F98
:1009D000002319F00130C9F022C0DD2371F011238A
:1009E00041F0113031F40E94120D8C2B0E941A0D2F
:1009F00074C10E94120D8C2B1DC0112319F01130EF
:100A000009F46BC10E94270D25C0DD2321F01630AB
:100A100008F063C10EC0153008F05FC11BC0DD23B4
:100A200061F0112331F0F701858180FF31C18F70B2
:100A300085838C2F0E946E0450C1112359F0093315
:100A400009F037C1FFEF27EE83E0F15020408040EE
:100A5000E1F72DC18C2F0E9475043FC18C2F869524
:100A60008695837019F0813061F037C1DD2321F064
:100A7000802F9C2F937002C080E090E00E94592745
:100A800034C1DD2321F0802F9C2F937002C080E0C1
:100A900090E00E946F2729C1802FDD2319F00E946A
:100AA0007B1302C00E94D6130E944D141EC18C2FCE
:100AB000837009F045C0D11114C1402F429546956D
:100AC0004770440F440F602F6F70862F90E0A0E0B6
:100AD000B0E0042E04C0880F991FAA1FBB1F0A9400
:100AE000D2F704FF10C00FE010E020E030E004C0B7
:100AF000000F111F221F331F4A95D2F70095109542
:100B00002095309503C000E010E09801C695C69589
:100B1000C370BC01CD01602B712B822B932BC23093
:100B200049F058F4C13019F00E947007DAC00E94F1
:100B30005E07D7C00E948207D4C00E945C07D1C064
:100B4000DD2319F08C2F817001C08695882309F46C
:100B5000C8C0402F429546954770440F440F602F00
:100B60006F70862F90E0A0E0B0E0042E04C0880FE4
:100B7000991FAA1FBB1F0A94D2F704FF10C00FE0F1
:100B800010E020E030E004C0000F111F221F331FCF
:100B90004A95D2F7009510952095309503C000E056
:100BA00010E09801C695C695C370BC01CD01602BBD
:100BB000712B822B932BC23049F058F4C13019F0BD
:100BC0000E9435088EC00E9423088BC00E944708EF
:100BD00088C00E94960785C0CF70DD2339F08C2F26
:100BE0000E94BC07802F0E946E047BC0802F0E9451
:100BF00075048C2F0E94DD0774C0023F01F128F4B8
:100C0000003F41F0013FA1F03FC0033FF9F0043F36
:100C100039F13AC0DD2341F0153008F05EC08C2F69
:100C20008F710E94020859C0163008F056C0F7CFE5
:100C3000DD2339F08C2F8F710E94BC074EC0DD235D
:100C4000C9F38C2F8F710E94DD0747C0DD2329F087
:100C50008C2F8F710E94A70740C00E94A2073DC041
:100C6000DD2349F0CF718C2F0E94BC0763E08C2FED
:100C70000E94660D32C081E00E94810D123068F141
:100C800082E00E94810D29C0DD2331F0112391F211
:100C9000802F0E94C40321C0112399F2093349F423
:100CA0009FEFE7EEF3E09150E040F040E1F700C045
:100CB0000000802F0E941A0410C04C2F4F70602F2C
:100CC000C7010E944D0F0E9421090FC04C2F4F7089
:100CD000602FC7010E94500F08C088EF8C0D843030
:100CE00020F40E9434270E946B03DD20C9F00E948B
:100CF000B30C80FD15C0F70112820E94AD0C0E945A
:100D0000BC07C7010E94B1060E94AD0CDF91CF91D4
:100D10001F910F91FF90EF90DF90CF900C94DD0723
:100D2000DF91CF911F910F91FF90EF90DF90CF90C7
:100D300008950F931F93CF93DF93EC01688179811E
:100D40008A810E94FE088C010E9459080E944A076D
:100D5000B801CE010E947C04DF91CF911F910F91C9
:100D60000895CF93DF93EC01988189812B813C8199
:100D7000232B31F08F3F31F481E09F3F19F403C002
:100D800081E001C080E080FD19C0CE010E940A030D
:100D900081110CC00E94B70C882381F08A818823BE
:100DA00069F082E0DF91CF910C94810DCE010E9419
:100DB0009906CE01DF91CF910C94E502DF91CF919E
:100DC000089580E090E00E94592780E090E00E9422
:100DD0006F270E94FF0C0E940F0D0E94310D0E9490
:100DE0007E150C944D1480911302909114020E9470
:100DF000CB270C94E1060E94EF0C0C94F306E92F2C
:100E0000E295EF704E2F50E0FA013297EE30F10587
:100E1000B0F4EA59FF4F0C94EB2F803F91F018F497
:100E2000883E68F40EC0843F51F40BC0883E48F001
:100E3000813F29F406C093FB882780F9089580E05C
:100E4000089581E00895FC01808191810E94F3085A
:100E50000E94FF060895CF93DF9300D000D01F9229
:100E6000CDB7DEB70F900F900F900F900F90DF91DE
:100E7000CF910895CF93DF9300D000D000D0CDB7AD
:100E8000DEB726960FB6F894DEBF0FBECDBFDF915A
:100E9000CF910895089508950C944B070C944C0736
:100EA0000E944E076093EA027093EB028093EC027B
:100EB0009093ED020C94E1060C9450070F931F934E
:100EC0000091EA021091EB022091EC023091ED02C8
:100ED000602B712B822B932B1F910F910C94500739
:100EE0000F931F930091EA021091EB022091EC0204
:100EF0003091ED0260237123822393231F910F9180
:100F00000C9450070F931F930091EA021091EB028B
:100F10002091EC023091ED02602771278227932700
:100F20001F910F910C9450070C944B070E9494074B
:100F30006093E6027093E7028093E8029093E902DF
:100F40000C94E10660E070E0CB010C9496070F93DF
:100F50001F9341E050E060E070E08A019B0104C013
:100F6000000F111F221F331F8A95D2F7C901B80144
:100F70001F910F910C9496070F931F9341E050E03F
:100F800060E070E004C0440F551F661F771F8A950C
:100F9000D2F78091E6029091E702A091E802B09129
:100FA000E9028A019B01082B192B2A2B3B2BC90133
:100FB000B8011F910F910C9496070F931F9341E076
:100FC00050E060E070E004C0440F551F661F771FBB
:100FD0008A95D2F740955095609570958091E6027C
:100FE0009091E702A091E802B091E9028A019B0189
:100FF000082319232A233B23C901B8011F910F910C
:101000000C9496070F931F9341E050E060E070E06E
:1010100004C0440F551F661F771F8A95D2F7809131
:10102000E6029091E702A091E802B091E9028A01FC
:101030009B01082719272A273B27C901B8011F91BF
:101040000F910C9496070F931F930091E602109155
:10105000E7022091E8023091E902602B712B822B8C
:10106000932B1F910F910C9496070F931F93009150
:10107000E6021091E7022091E8023091E902602334
:101080007123822393231F910F910C9496070F9342
:101090001F930091E6021091E7022091E80230913F
:1010A000E90260277127822793271F910F910C94E3
:1010B000960708952EE0929F800D1124E82FE69563
:1010C000E695E695877051E001C0550F8A95EAF7DD
:1010D00085E0E89FF0011124E754FD4F20E030E067
:1010E00070E04081CB01022E02C0969587950A944C
:1010F000E2F78170819584278523842781932F5F70
:101100003F4F2530310569F708952EE0929F800DFD
:101110001124682F669566956695982F977085E0DF
:10112000689FB001112440E050E080E0FB01E40F33
:10113000F51FE754FD4F208130E0092E02C036959F
:1011400027950A94E2F721703327042E01C0220F5D
:101150000A94EAF7822B4F5F5F4F4530510531F714
:101160000895BF92CF92DF92EF92FF920F931F9359
:10117000CF93DF938C01C090E602D090E702E0901D
:10118000E802F090E9028091EA029091EB02A091CE
:10119000EC02B091ED02C82AD92AEA2AFB2ACFE153
:1011A000D0E0D701C6010C2E04C0B695A79597953F
:1011B00087950A94D2F780FD04C0219790F7B12C4F
:1011C00007C0BC2EB8018C2F0E9488100197A9F38C
:1011D0008B2DDF91CF911F910F91FF90EF90DF90BA
:1011E000CF90BF900895CF93DF93EC010E94B10898
:1011F000BE010E948810DF91CF9108951F93CF9375
:10120000DF93EB019091B802992321F0CB010E946A
:10121000F30813C0882349F0CB010E94B108182FAE
:10122000682FCE010E945A0804C0CB010E94850895
:10123000182FBE01812F0E948810DF91CF911F913E
:101240000895EF92FF920F931F93CF93DF938C013A
:10125000892B09F46CC0F12CEE24E394E80121966B
:10126000F8018491843740F4843008F051C0813013
:1012700081F0823019F15BC0853709F444C0A8F1D0
:101280009CE7980F903708F052C08F770E941A049D
:1012900041C00E5F1F4FFE01849190E2980F98307D
:1012A00050F48770FE2D01C0FF0F8A95EAF78F2F4B
:1012B0000E94020D14C00E94C4032DC00E5F1F4F78
:1012C000FE01849190E2980F983060F48770FE2DB3
:1012D00001C0FF0F8A95EAF78F2F0E94080D0E9428
:1012E000310D19C00E941A0416C00E5F1F4FFE0177
:1012F000C491CC2381F08FE99FE00197F1F700C002
:101300000000C150F6CF0E5F1F4FFE01F49003C0E6
:101310000E94C4038E018F2D882309F49FCFEFE92B
:10132000FFE03197F1F700C000008150F5CFDF9169
:10133000CF911F910F91FF90EF9008951F93CF933E
:10134000DF93C091EE0216E08091EF02C81799F08A
:10135000D0E01C9FF0011D9FF00D1124E051FD4FC6
:101360004081518162817381848195810E943A0715
:101370002196C770E9CFDF91CF911F9108954091D9
:1013800020035091210360912203709123038091E7
:101390002403909125030C943A070F931F93CF9346
:1013A000DF938091250382958F7009F05DC0809155
:1013B0002203882309F458C08091EE021091EF02B5
:1013C0006091200370912103C0912303D0912403E5
:1013D00091E06F3F09F090E0292F06E0811709F4B2
:1013E00043C0209721F07F3F21F030E003C031E07F
:1013F00001C0322F90E030FD34C0089FF001099FFA
:10140000F00D1124DF01A051BD4F11963C911197B1
:10141000371327C03C91361324C012963C91129783
:1014200031111FC013964D915C9114974C1B5D0BAD
:10143000483C5105B0F4809125038F708061809302
:101440002503EB50FD4F80818F708061808380E2A7
:1014500093E00E94B106DF91CF911F910F910C9400
:101460009E0901968770BACFDF91CF911F910F919E
:1014700008959F92AF92BF92CF92DF92EF92FF9228
:101480000F931F93CF93DF93CDB7DEB761970FB65E
:10149000F894DEBF0FBECDBF8C0185E0F801DE0100
:1014A0001D9601900D928A95E1F7F801E2809091E6
:1014B00020036091210320912303309124032115FF
:1014C000310531F06F3F31F481E09F3F19F403C0E3
:1014D00081E001C080E0F82FF1709F2E80FD3FC1B8
:1014E000F80140815181A380B48080E2C82E83E05E
:1014F000D82EF0902203F501E21BF30BFF2009F434
:10150000D9C080912503E83CF10508F095C0282F4B
:10151000207F09F052C0561313C0491311C0FE2C8E
:10152000E1100EC08F708061809325030E94BF0977
:10153000C6010E94B10680912503F80185834CC144
:10154000AB2831F05F3F31F481E04F3F19F403C025
:1015500081E001C080E080FD03C081E08E2502C0F3
:1015600080E090E0F82FF170FF2E80FF1CC080918A
:10157000EE022091EF0236E0821709F40BC190E0F1
:10158000389FF001399FF00D1124E051FD4F61812A
:10159000561306C06081461303C06281E61203C081
:1015A00001968770E9CFFE2CEE2009F415C18091D9
:1015B000250381608093250354C0561306C0491348
:1015C00004C0E11002C0F80199C0C8010E942307BD
:1015D000882361F1EE2051F120912503822F82951D
:1015E0008F7090E0029774F0809120039091210316
:1015F00098878F831986BB86AA862C87CE0107968B
:101600000E94B10686E0F801A0E2B3E001900D92DD
:101610008A95E1F70E94CD090E94BF090AC05617BA
:1016200011F1C8010E94230781112CC0C8010E943A
:10163000B106FF24F394D0C0282F207F81F77A2DA4
:10164000B98AA88A6E2D89890E942B0780E293E0CF
:101650000E94B10686E0F60111928A95E9F70E9490
:10166000BF09F12CB9C04913DCCFE110DACFF80182
:101670008583C8010E94B10686E0F60111928A9521
:10168000E9F7AAC0EE2091F220912503822F8295DE
:101690008F7090E002970CF4B5CF80912003909169
:1016A00021039A8389831B82BD82AC822E83CE0163
:1016B0000196A6CFE83CF10508F044C0FE2CEE20D0
:1016C00009F4B4CF561330C049132EC0209125031E
:1016D00020FD21C0822F82958F70482F50E0411548
:1016E0005105C9F0F80125834F30510541F08F5F56
:1016F000982F9295907F822F8F70892B8583C801B8
:101700000E94B10686E0F801A0E2B3E001900D92DC
:101710008A95E1F73CC086E0F801A0E2B3E00190D1
:101720000D928A95E1F758C0C8010E9423078111E4
:1017300069CF80912503816080932503C8010E94B1
:10174000B1064AC07A2DB98AA88A6E2D89890E946D
:101750002B0786E0F60111928A95E9F718C0EE2072
:1017600009F464CFC8010E942307F82E882309F4E6
:101770005DCF86E0F801A0E2B3E001900D928A957A
:10178000E1F780E293E00E94BE030E94CD090E942F
:10179000BF0922C04D875E878D859E850E94F30814
:1017A000292F22952F70223028F49F7039F0811153
:1017B00005C00BC0243028F49F7049F4805E883047
:1017C00020F0C8010E94B1069F2CF92C05C0F80139
:1017D0009581907F99F7F9CF8F2D61960FB6F89488
:1017E000DEBF0FBECDBFDF91CF911F910F91FF9054
:1017F000EF90DF90CF90BF90AF909F9008951F9390
:10180000CF93DF93CDB7DEB72C970FB6F894DEBF3A
:101810000FBECDBF4F83588769877A878B879C8798
:10182000CE0107960E94390A8823D1F09F818885CE
:101830002A853B85232B31F08F3F31F481E09F3F98
:1018400019F403C081E001C080E080FD47C04F81F2
:10185000588569857A858B859C850E943A073EC0AC
:1018600086E0FE013796DE01119601900D928A9571
:10187000E1F7FF81E8856A857B856115710531F0A7
:10188000EF3F31F481E0FF3F19F403C081E001C074
:1018900080E080FD23C02091EF0230E0C901019675
:1018A000877099274091EE0250E084179507F1F177
:1018B000F983EA837D836C8396E0929FD001939FA6
:1018C000B00D1124A051BD4FFE01319601900D9233
:1018D0009A95E1F78093EF020E949E0916E08091AD
:1018E000EE029091EF02891771F1189FC001112447
:1018F00080519D4F0E94390A882329F1E091EE0220
:101900001E9FF0011124E051FD4F40815181628101
:101910007381848195810E943A078091EE0290E064
:101920000196877099278093EE02D9CF0E94FB061B
:101930001092EF021092EE02E0E2F3E086E0DF01A7
:101940001D928A95E9F72C960FB6F894DEBF0FBE6C
:10195000CDBFDF91CF911F9108958091260385958A
:1019600085958595089580912603877008959091B7
:101970002603977081E009F480E0089590919E031A
:1019800092FB222720F9281751F080FB92F99093BF
:101990009E0380919D0390919E030C94C20D089527
:1019A00080919E0382FB882780F991E089270C941F
:1019B000BE0C81E00C94BE0C80E00C94BE0C8091B7
:1019C0003203089590913203892B80933203089556
:1019D0008095909132038923809332030895109269
:1019E0003203089590913103892B80933103089538
:1019F000809590913103892380933103089510924B
:101A00003103089590913003892B8093300308951A
:101A1000809590913003892380933003089510922C
:101A20003003089580912703089508950C94150DAF
:101A30000C94160D90919E0392FD08C0909127037F
:101A4000981721F0809327030C94180D0895809126
:101A50002703882329F01092270380E00C94180DA7
:101A60000895E0911302F091140280913203808373
:101A7000E0911302F0911402908180913103892B3F
:101A80008083E0911302F0911402908180913003E1
:101A9000892B808380912703882381F0E0911302B2
:101AA000F09114029081892B808380911302909190
:101AB00014020E94852781110E94270D8091130234
:101AC000909114020C9440270C94150D90919E0354
:101AD00092FD10C098E0899F90011124262B20933D
:101AE00026030E94BC0780912603859585958595E0
:101AF0000C94640D0C94BC071092260380E00C94A7
:101B0000640D209126038095822380932603982FCD
:101B1000977041F430E0482F082E000C550B241725
:101B2000350721F490919E0392FF07C08595859516
:101B300085950E94DD070C947C0D089580E090E06F
:101B40000E949D3021E0893E9E4F09F020E0822FC7
:101B5000089582E090E00C94953083E090E00C943E
:101B60009530CF9384E090E00E949530C82F82E2B8
:101B700090E00E9495302C2F30E0A901582BCA012B
:101B8000CF910895CF93C92F682F84E090E00E94F1
:101B9000B3306C2F82E290E0CF910C94B330AB0164
:101BA000BC018FE090E00C94C530AB01BC0183E137
:101BB00090E00C94C53060E070E0CB010C94D50D42
:101BC00060E070E0CB010E94CF0D0C94DB0D69EE5C
:101BD0007EEF80E090E00E94D13060E082E090E013
:101BE0000E94B33060E083E090E00E94B330109236
:101BF000EA021092EB021092EC021092ED0260E009
:101C000084E090E00E94B33060E082E290E00E94C5
:101C1000B33060E085E090E00E94B33060E086E0A1
:101C200090E00E94B3306FEF87E090E00E94B33005
:101C300040E050E0BA0188E090E00E94C53060E0EA
:101C40008DE090E00E94B33040E050E0BA0188E1BE
:101C500090E00E94C53060E087E190E00E94B330E0
:101C600040E050E0BA018CE190E00E94C53060E0B5
:101C700070E080E290E00E94D13040E050E0BA0194
:101C800088E190E00E94C5300C94E00D0C94E70DC3
:101C9000682F8EE090E00C94B3300E946D28609322
:101CA00042037093430380934403909345036093EE
:101CB0003E0370933F038093400390934103089544
:101CC00085B7806885BF85B7806885BF089581E046
:101CD00008950C94670E08950C946B0E0C946B0E83
:101CE0000C946E0E0C946B0E0C94720E0C946B0E86
:101CF0000E94600E84E691E10E94EE280E94760E1A
:101D00000C94740E0E946C0E0C946B0E0E9458285A
:101D10000E9455120C94700E6F927F928F929F9238
:101D2000AF92BF92CF92DF92EF92FF920F931F93E9
:101D3000CF93DF93CDB7DEB72A970FB6F894DEBF07
:101D40000FBECDBF0E94681281110E944D0E34E378
:101D5000832E33E0932E00E010E0E02E802F0E94CF
:101D60008B115C01F401619071904F016826792616
:101D700061147104B1F40F5F1F4F0530110569F74D
:101D80008FEF89838A831B820E9461288160782F6C
:101D90009D838C8349815A816B818D810E9474035C
:101DA00043C08091460381FD0E949411F12CCC2404
:101DB000C394D12CC3018C219D21892B71F10E94E8
:101DC000690EAC20BD208823A1F0FE82EF8281E065
:101DD000A114B10409F480E088870E946128816021
:101DE000782F9A8789874E815F8168858A850E94CE
:101DF0007403000F111FF801EC5CFC4F808191818E
:101E0000C826D926D182C08241E0AB2809F440E03F
:101E10006F2D8E2D0E947D2007C0F394CC0CDD1C0D
:101E2000FEE0FF12C7CFA7CF0E9433210E946B14A0
:101E30000E943427909133038917D1F00E943427F0
:101E4000809333032A960FB6F894DEBF0FBECDBF42
:101E5000DF91CF911F910F91FF90EF90DF90CF9086
:101E6000BF90AF909F908F907F906F900C946B037A
:101E70002A960FB6F894DEBF0FBECDBFDF91CF918B
:101E80001F910F91FF90EF90DF90CF90BF90AF9098
:101E90009F908F907F906F90089580E090E00895DC
:101EA000089526E4829FC0011124FC012EE0729F58
:101EB000E00DF11D1124E60FF11DEE0FFF1FE45B95
:101EC000FE4F859194910895880F991FFC01EC595C
:101ED000FD4F859194910895CF93DF930E948D10CB
:101EE000EC01811520E5920708F03FC0811540E420
:101EF000940708F0D2C0883E910500F5803E910518
:101F000008F002C1883A910570F4853A910508F00D
:101F1000A6C08130910509F49FC008F4F2C004976F
:101F200008F0F2C0EEC08F3B910508F4A1C0803CE0
:101F3000910508F4E6C0805C9109A5C0811550E2C6
:101F4000950760F4C11581E0D80708F0DDC0CD3EEB
:101F5000D10508F4D6C0CE019065D7C0811520E325
:101F6000920708F093C09F708EC0811545E59407D5
:101F700008F046C0811554E5950708F0A6C0C115C4
:101F800082E5D80718F5C11521E5D20708F088C009
:101F9000CE01F4E096958795FA95E1F7282F237006
:101FA0003C2F337081E090E002C0880F991F3A9572
:101FB000E2F79C68922B2C2F2F702695269540E2F5
:101FC000249F90011124822B932B9FC09E0123708C
:101FD00033279C2F96959695C115D34508F065C07B
:101FE00041E050E002C0440F551F2A95E2F780E21D
:101FF000989F90011124CA01822B932B9C6885C065
:10200000811559E5950798F4C11588E5D80708F0BA
:1020100061C0C11526E5D20708F073C08C2F0E945D
:1020200021118F7190E0982F882790626EC08115E2
:102030004AE5940708F453C090568115904208F081
:1020400060C08D2F8F710E9421119E013327306255
:102050008F71A901582B53C081E090E056C0855A7A
:10206000C82FD0E0C057DD4F888190E090644DC00C
:10207000885AC82FD0E0CC0FDD1FCE59DD4F8881A4
:102080009981946442C00E94640F3FC09927D3FF96
:1020900002C0986C3AC0906C38C09F70906A35C08E
:1020A0009C2F8827816F906A30C041E050E002C0C9
:1020B000440F551F2A95E2F780E2989F9001112462
:1020C000CA01822B932B9A6820C0982F8827846F8F
:1020D000906A1BC09C2F8827806F906A16C08F70F3
:1020E0000E9421119E0194E0369527959A95E1F77B
:1020F0002F7030E0322F22273069A901482BCA0106
:1021000004C080E090E001C0CE01DF91CF9108953E
:102110000E94510F0E946C0F08958238910569F159
:10212000B0F48133910509F46DC048F4893291050A
:1021300009F463C08A32910509F469C008958533B2
:10214000910509F455C089339105B9F00895833E8E
:10215000910569F138F4803E9105B1F0823E910518
:1021600009F10895863E9105A9F1873E9105B9F1DF
:10217000843E910509F064C023C020919D0320FD99
:102180004FC021FD4DC0089580919D0380FD44C046
:1021900080919E0380FF44C080919D0384FD42C0D6
:1021A00083EE4DC080919D0382FF38C0F5CF8091B2
:1021B0009D0382FD33C080919E0380FD31C0ECCF32
:1021C00080919E0381FF32C080919D0384FD2AC0CF
:1021D00087EE35C080919D0383FF26C0F5CF8091A7
:1021E0009D0383FD21C080919E0381FD1FC0ECCF24
:1021F00080919D0385FD1CC01DC080919D0385FDC0
:1022000019C016C080919D0386FD16C017C080912D
:102210009D0386FD13C010C089E311C082EE0FC07C
:1022200080EE0DC080E00BC086EE09C084EE07C0D2
:1022300089E205C085E303C08AE201C081E390E042
:10224000089590919D0392FF0DC0282F287128308A
:1022500019F4877F846006C0282F2471243011F47C
:102260008B7F886093FF0DC0282F2871283119F4C7
:10227000877E846106C0282F2471243111F48B7E5F
:10228000886120919E0320FF0DC0382F38713830AF
:1022900019F4877F816006C0382F3171313011F415
:1022A0008E7F886021FF0DC0282F2871283119F4F6
:1022B000877E816106C0282F2171213111F48E7E25
:1022C000886194FD877E089580E0089508950E94B6
:1022D0009E0D811102C00E94460E0E94A90D80939E
:1022E00046030E94B10D90939E0380939D030E942C
:1022F00066110E94AD0D682F70E080E090E00E94B2
:102300005C076091E6027091E7028091E80290918B
:10231000E9020C949407E82FF0E0EE0FFF1FE75559
:10232000FC4F808191810895089580EA8A95F1F7A4
:10233000089500C008950C94951108950C949D1172
:102340000C949E110C949D110C94A211F894E82FFA
:10235000E295EF70F0E031A1282F2F7081E090E03E
:1023600001C0880F2A95EAF7982F9095932391A39F
:1023700092A1892B82A3789408950F931F93CF93F2
:10238000DF93C1EAD2E089918F3F11F00E94A6113C
:1023900082E0C63AD807B9F7C3E9D2E001EA12E011
:1023A00089918F3F11F00E94A6110C171D07C1F7EC
:1023B000DF91CF911F910F910895AF92BF92CF926D
:1023C000DF92EF92FF920F931F93CF93DF938C01D5
:1023D000C62FD0E0CE018F559D4F6C01DC019C9142
:1023E0009F3F09F457C0B62EF894E92FE295EF709D
:1023F000F0E081A19F7021E030E001C0220F9A95AA
:10240000EAF7822B81A382A12095282322A3789426
:102410000E949911E3E9F2E020E030E0E12CF12C98
:1024200041E050E081918F3FC1F0A82FA295AF709D
:10243000B0E090966C9170E08F70DB0102C0B595B2
:10244000A7958A95E2F7A0FD08C0CA01022E02C036
:10245000880F991F0A94E2F702C080E090E0E82A12
:10246000F92A2F5F3F4F2E303105E1F6F6018081CA
:102470008F3F11F00E94A61161E0E114F10409F40C
:1024800060E08B2D0E949B11CC0FDD1FC00FD11F70
:10249000F982E882DF91CF911F910F91FF90EF9029
:1024A000DF90CF90BF90AF9008950E94BD11EFE9EB
:1024B000F3E0A9EAB3E0119211921D921D9283E01C
:1024C000E93AF807C1F785E00E94B3120C94F002D4
:1024D000FF920F931F93CF93DF93CDB7DEB72A9769
:1024E0000FB6F894DEBF0FBECDBF8E010F5F1F4F3A
:1024F0008AE0F80111928A95E9F7F12C6F2DC80155
:102500000E94DD11F394F5E0FF12F8CF4AE050E0AD
:10251000B8018FE993E00E946F30FF24F394009795
:1025200009F4F12C892B41F08AE0F801AFE9B3E01E
:1025300001900D928A95E1F72F2D45E069EA73E04D
:102540008FE993E00E94B4120E94F8028F2D2A9620
:102550000FB6F894DEBF0FBECDBFDF91CF911F91B4
:102560000F91FF9008950895FF920F931F93CF93BB
:10257000DF93F82E092F162FD72FC42F222349F0CF
:1025800081E0809349030E946128909348038093DF
:102590004703809149038823D9F0809147039091A4
:1025A00048030E947928059798F0EF2DF02FA12F6E
:1025B000BD2F80E090E04C2F50E08417950734F455
:1025C000219131912D933D930196F7CF10924903BC
:1025D000DF91CF911F910F91FF9008950E94D22714
:1025E0000E944F2A0E94682A0E947A2A0E94820E24
:1025F000FBCF8091500380FF0BC060911A0285E0F1
:10260000689FB001112475956795759567952BC0E6
:1026100081FF09C060911A0285E0689FB001112412
:102620007595679520C082FF07C060911A0285E00A
:10263000689FB001112417C090914F039923D1F0E6
:1026400060911902961788F720911A0285E0289F59
:1026500090011124929FA001939F500D112470E0CE
:10266000CA010E94B82F6038710540F461157105E8
:1026700019F406C065E070E0862F08958FE708958D
:1026800081E008958091500380FF08C06091160298
:1026900070E0759567957595679521C081FF06C0B7
:1026A0006091160270E07595679519C082FF04C0AD
:1026B0006091160270E010C090914E03992399F03A
:1026C000609115029617A0F780911602899FC001AC
:1026D000112470E00E94B82F6038710540F4611534
:1026E000710519F406C061E070E0862F08958FE748
:1026F000089581E008958D3E21F40E94F91281959C
:1027000004C08E3E29F40E94F91280935403089568
:102710008F3E21F40E94F912819504C0803F29F474
:102720000E94F912809353030895893F19F40E947F
:10273000421305C08A3F31F40E9442138195809371
:10274000550308958B3F21F40E944213819504C0E4
:102750008C3F29F40E9442138093560308959FE012
:10276000980F983078F421E030E0A90102C0440FBE
:10277000551F9A95E2F7CA0190915203892B8093D5
:10278000520308958D3F21F48091500381600BC066
:102790008E3F21F480915003826005C08F3F29F461
:1027A0008091500384608093500308958D3E39F4E6
:1027B0009091540397FF35C01092540359C08E3E38
:1027C00029F4909154031916BCF32BC09091530334
:1027D0008F3E29F497FF25C01092530349C0803FD4
:1027E00019F41916CCF31DC090915503893F29F4B3
:1027F0001916BCF4109255033BC08A3F19F497FF99
:1028000010C0F8CF8B3F39F49091560397FF09C061
:10281000109256032DC08C3F21F490915603191647
:10282000BCF39FE0980F983080F421E030E0A901DC
:1028300002C0440F551F9A95E2F7CA018095909106
:10284000520389238093520313C08D3F21F480915A
:1028500050038E7F0BC08E3F21F4809150038D7FFB
:1028600005C08F3F29F4809150038B7F80935003E4
:1028700080915303811106C080915403811102C0DD
:1028800010924F0380915503811106C08091560329
:10289000811102C010924E0308950E946128209178
:1028A0005303211104C020915403222321F090935B
:1028B0004D0380934C0320915503211104C02091B6
:1028C0005603222321F090934B0380934A0381E522
:1028D00093E00C944B27EF92FF920F931F93CF93AB
:1028E000DF9300D000D000D0CDB7DEB786E0E1E5C1
:1028F000F3E0DE01119601900D928A95E1F7E090E8
:102900005303F09054030091550310915603109215
:102910005303109254031092550310925603E11082
:1029200003C0FF2009F45DC080914C0390914D03DA
:102930000E947928AC0190914F03992339F020919E
:102940001B0230E02417350758F04BC020911C02C1
:102950008AE0289F900111242417350718F041C000
:102960009F3F19F09F5F90934F03EE2061F00E940C
:10297000F9121E1414F09FEF01C091E0989F902D62
:10298000112490935303FF2061F00E94F9121F1449
:1029900014F09FEF01C091E0989F902D1124909327
:1029A0005403309153033323E1F020915403222345
:1029B000C1F045EB3403C0011124992319F0909321
:1029C000530303C081E08093530335EB2303C0011D
:1029D0001124992319F09093540303C081E080934C
:1029E0005403011103C0112309F45DC080914A030F
:1029F00090914B030E947928AC0190914E0399234A
:102A000039F02091170230E02417350758F04BC0F9
:102A1000209118028AE0289F90011124241735077D
:102A200018F041C09F3F19F09F5F90934E03002321
:102A300061F00E944213101614F09FEF01C091E064
:102A4000989F902D112490935503112361F00E94BB
:102A50004213111614F09FEF01C091E0989F902D42
:102A6000112490935603309155033323E1F02091C4
:102A700056032223C1F045EB3403C00111249923EE
:102A800019F09093550303C081E08093550335EB13
:102A90002303C0011124992319F09093560303C016
:102AA00081E0809356038091530381110BC0809184
:102AB0005403811107C080915503811103C0809197
:102AC000560381110E944D14EB82FC820D831E83FC
:102AD00086E0FE013196A1E5B3E001900D928A9562
:102AE000E1F726960FB6F894DEBF0FBECDBFDF919B
:102AF000CF911F910F91FF90EF900895E1E5F3E0E2
:102B000086E0DF011D928A95E9F710924F0310923B
:102B10004E03109250030895EF92FF920F931F936C
:102B2000CF93DF938B01682F11110AC0442329F042
:102B3000E82FF0E0EC59FD4F6491762F862F75C099
:102B4000212F30E0E82FF0E0442321F0EC59FD4F35
:102B5000E491F0E046E0049FC0011124CFEFD0E003
:102B6000BE010E94A42F4BEA4603C001479F900D6F
:102B70001124800F911D800F911D982F990F890F9F
:102B8000AE01421B530B4E9FD0014F9FB00D5E9F75
:102B9000B00D11249B2F189FA0011124452F5527FC
:102BA0008E01041B150B0E9FA0010F9F500D1E9F41
:102BB000500D11247E01E81AF108E29E8001E39E87
:102BC000100DF29E100D1124212F3327C21BD30BA1
:102BD000CE9F9001CF9F300DDE9F300D11246230CB
:102BE0007105A9F048F46115710569F0613071054E
:102BF000C9F48B2F752F0DC06430710581F058F02A
:102C00006630710579F47E2F8B2F932F0DC0832FA3
:102C10007B2F9E2F09C08E2F7B2F952F05C08E2FC7
:102C2000732F02C07E2F852F692FDF91CF911F91C7
:102C30000F91FF90EF90089541E00E948C15089548
:102C400020E030E0869F212D969F200D311D11241C
:102C5000C9010895BC018230910508F40895613ED0
:102C60008EE1780748F49B0195E0369527959A9573
:102C7000E1F748E0420F01C04FEF91E0242F30E030
:102C8000290F311D35952795229FF001239FF00DC7
:102C9000F00D11246E177F0718F44FEF420F04C098
:102CA0002F3F39F091E0920F491740F78FEF890FCE
:102CB00008958FEF0895482F982F46FD9095E92F9E
:102CC000EF739F7046FD9F5FE295EF70EE0FF0E0AF
:102CD000EA55FD4F2181299F802D212D11248295B8
:102CE0008F702295207F822B3081982F930F892F10
:102CF00047FD819580580895E42FF0E0EE0FFF1F07
:102D0000E65BFE4F408134EE439F412D1124E72FB7
:102D1000F0E050E0445E5F4FDA01A21BB1099D0173
:102D2000B7FF03C031952195310993E0220F331F7E
:102D30009A95E1F7AF01421B530B9A0157FF02C06E
:102D400020E030E0279F212D1124722F0895E42FD9
:102D5000F0E0EE0FFF1FE65BFE4F408134EE439F35
:102D6000412D1124E82FF0E050E0445E5F4FDA017E
:102D7000A21BB1099D01B7FF03C03195219531090F
:102D800093E0220F331F9A95E1F7AF01421B530BDB
:102D90009A0157FF02C020E030E0582F259F212DD7
:102DA0001124822F0895622F0895E42FF0E0EE0F92
:102DB000FF1FE65BFE4F6081621B0895E42FF0E089
:102DC000EE0FFF1FE55BFE4F6081621B0895A22F8F
:102DD00050E0FA01EE0FFF1FE55BFE4F908190522D
:102DE00097FD9195440F551FFA01E65BFE4F308128
:102DF000232F30E02A1B3109290F311D97FD3A9509
:102E0000620F0895EF920F931F9393E0099F800143
:102E10001124159507956E2D600F1F910F91EF905E
:102E200008950F93CF93DF93D72FC82F47FD419578
:102E3000E8E3F0E0CF01841B910947FD9395889F5B
:102E4000B001899F700D700D1124229FC001239F36
:102E5000900D900D1124860F971F0E942A16682F3F
:102E6000660F860F682F600F7D2F8C2FDF91CF911B
:102E70000F9108950F931F93522F10E0F801EE0F5A
:102E8000FF1FE55BFE4FE081F0E0B0979F0152032A
:102E9000D001539FB00D1124000F111FF801E65B04
:102EA000FE4F008110E00057110940039001419F3F
:102EB000300D11242A0F3B1F37FF02C021583F4F0E
:102EC000220F232F221F330B620F1F910F910895A2
:102ED0000F931F93522F10E0F801EE0FFF1FE55BD9
:102EE000FE4FE081F0E0B097EE0FFF1F9F0152030D
:102EF000D001539FB00D1124000F111FF801E65BA4
:102F0000FE4F008110E000571109000F111F400310
:102F10009001419F300D11242A0F3B1F37FF02C043
:102F200021583F4F220F232F221F330B620F1F9177
:102F30000F9108950F931F9310E0F801EE0FFF1FFC
:102F4000E65BFE4F9081905797FD9195000F111F02
:102F5000F801E55BFE4FE081F0E0B097DF01AA0FDA
:102F6000BB1F8D010E0F1F1F2003D001219FB00D2D
:102F70001124E8E3F0E0E91BF10997FDF3959F01C7
:102F8000220F331F89010E0F1F1F40039001419F25
:102F9000300D11242A0F3B1F37FF02C021583F4F2D
:102FA000220F232F221F330B620F1F910F910895C1
:102FB0000F931F93CF93DF93D62F072F182FC42F74
:102FC000822F0E945B16EC2FF0E0EE0FFF1FE65BF6
:102FD000FE4F90819058890F87FD8195880F682F4B
:102FE0002CE0629F612D11246D0F702F812FDF91D6
:102FF000CF911F910F910895E42FF0E0EE0FFF1F86
:10300000E65BFE4F9081921B97FD9195292F38E149
:10301000239F212D1124620F08954095282F429F50
:10302000412D1124842F089522E8241B08F420E068
:10303000620F0895EF92FF920F93970195E0099F19
:10304000200D311D11242F3F310519F010F02FEF05
:1030500030E02095382F320F08F43FEF832F0F9187
:10306000FF90EF900895EF92FF920F93E00EF11C06
:10307000F90137FF03C0F195E195F10924E0EE0F66
:10308000FF1F2A95E1F7EF3FF10519F014F0EFEF7C
:10309000F0E09A0157FF03C031952195310994E082
:1030A000220F331F9A95E1F72E173F070CF4F90111
:1030B000EE0DFF1DEF3FF10519F010F0EFEFF0E01E
:1030C0002E2F2095382F320F08F43FEF832F0F91CA
:1030D000FF90EF900895EF92FF920F93972F09348E
:1030E00038F4B701601B71096F3F710519F010F0DA
:1030F0006FEF70E0485F5F4F4131510540F0A9012B
:10310000485F5F4F4131510510F06FEF70E06095FF
:10311000482F460F08F44FEF842F37FF02C02D5F72
:103120003F4F35952795359527956091B403620FEC
:10313000792F0F91FF90EF900895EF92FF920F93E8
:103140009701201B31092F3F310519F010F02FEFA7
:1031500030E0322F3095482F430F08F44FEF842F83
:10316000620F0F91FF90EF900895EF92FF920F93EF
:103170009701201B31092F3F310519F010F02FEF77
:1031800030E02095382F320F08F43FEF832F0F9156
:10319000FF90EF900895FC019B01009721F477FFC9
:1031A0002BC080E80895AC0197FF04C04427552741
:1031B000481B590BB901640F751F37FD0CC0241B48
:1031C000350BC901A5E0880F991FAA95E1F70E9468
:1031D000B82F80E20CC0CB0165E0880F991F6A957B
:1031E000E1F7BA01621B730B0E94B82F80E6861BC1
:1031F000F7FF03C08195089580E00895FF920F9333
:103200001F93CF93DF93F62E172FD82FC901C72F07
:10321000C01BBA010E94CB18982F990F890F7C2FE1
:10322000781B719F712D11246F2D8D2FDF91CF9100
:103230001F910F91FF900895FF920F931F93CF93CB
:10324000DF93F62ED72F182FC901C12FC01BBA014B
:103250000E94CB18982F990F890FC81B2C2F219FE4
:10326000212D1124822F6F2D7D2FDF91CF911F9162
:103270000F91FF900895EF920F931F93CF93DF93D9
:10328000D62F172FC82FC9010E19070FBA010E9498
:10329000CB18702F781B719F712D11246D2F8C2FDF
:1032A000DF91CF911F910F91EF900895EF920F93BF
:1032B0001F93CF93DF93D62FC72F182FC9010E1955
:1032C000010FBA010E94CB18081B202F219F212D2E
:1032D0001124822F6D2F7C2FDF91CF911F910F91A1
:1032E000EF9008950F93CF93DF93D72FC82FC90185
:1032F000BA010E94CB18682F600F7D2F8C2FDF91B1
:10330000CF910F910895EF920F93CF93DF93D72F23
:10331000C82FC9010E19BA010E94CB18602F681B73
:103320007D2F8C2FDF91CF910F91EF9008950E9408
:103330001C16089546E050E06CE170E083EB93E0EA
:103340000C94853046E050E06CE170E083EB93E054
:103350000C94A330E3EBF3E085E3808380912E02AD
:1033600090912F02A091300281839283A3838FE7F3
:1033700084838FEF85830C94A21980E008950F93C6
:103380001F93CF93DF93C82FD62F8A010E94BD19B8
:103390009EE0C99FF0011124EC5FFE4FED0FF11D7F
:1033A00090819F3F29F0F801E80FF11D90838F5F16
:1033B000DF91CF911F910F910895E091B402F091A8
:1033C000B5020994E091B002F091B10209944F92D4
:1033D0005F926F927F928F929F92AF92BF92CF92A5
:1033E000DF92EF920F931F93CF93DF932C013B015A
:1033F000FC01C0818EE0C89FC02D1124DEE0DC0FEF
:10340000D43408F0D3E46091B70366958091B90392
:103410009091BA030E942016182FCD1708F044C0CF
:103420008C2E912CF401E053FE4F9081F2018181AA
:103430008923C1F1F401EE0FFF1FE65BFE4FC08050
:10344000D12CF0E7CF1AD108F401EE0FFF1FE55B96
:10345000FE4FA080B12C80E2A81AB108CC9C90014C
:10346000CD9C300D300D1124AA9CC001AB9C900D59
:10347000900D1124820F931F0E942A16082F60912D
:10348000B4037091B5038091B603E12E9501A601B6
:10349000F30109950E949719462F282F672FC40121
:1034A0000E94E219CF5FB9CF81E0D33408F080E009
:1034B000DF91CF911F910F91EF90DF90CF90BF9050
:1034C000AF909F908F907F906F905F904F900895F6
:1034D0006BE379E10C94E71966E579E10C94E7195F
:1034E00062E077E10C94E71963E879E10C94E7195D
:1034F000AF92BF92CF92DF92EF92FF920F931F9302
:10350000CF93DF936C015B01FC01C0818EE0C89F0B
:10351000C02D1124DEE0DC0FD43408F0D3E4609138
:10352000B70366958091B9039091BA030E94201663
:10353000182FCD1778F5EC2EF12CF701E053FE4F44
:103540009081F6018181892319F1F701EE0FFF1FA8
:10355000E55BFE4F208130E020523109F701EE0F8C
:10356000FF1FE65BFE4F408150E0405751096091DC
:10357000B4037091B5038091B603012FF50109954D
:103580000E949719462F282F672FC7010E94E21922
:10359000CF5FCFCF81E0D33408F080E0DF91CF91CF
:1035A0001F910F91FF90EF90DF90CF90BF90AF9061
:1035B00008956EEF78E10C94781A6CE179E10C943F
:1035C000781A61E177E10C94781A62E779E10C945A
:1035D000781ABF92CF92DF92EF92FF920F931F93D0
:1035E000CF93DF938C017B01FC01C0818EE0C89FEB
:1035F000C02D1124DEE0DC0FD43408F0D3E4609158
:10360000B7036695669521E0620F08F46FEF80912D
:10361000B9039091BA030E942016B82ECD17F0F48A
:10362000CC2ED12CF601E053FE4F9081F801818120
:10363000892391F06091B4037091B5038091B60332
:103640002B2D4C2FF70109950E949719462F282FF3
:10365000672FC6010E94E219CF5FE0CF81E0D3342B
:1036600008F080E0DF91CF911F910F91FF90EF90D4
:10367000DF90CF90BF9008956CE776E10C94E91A43
:1036800067EA76E10C94E91A63ED76E10C94E91AA5
:1036900065ED76E10C94E91A6EED76E10C94E91A89
:1036A00067EE76E10C94E91A68ED77E10C94E91A7B
:1036B0006CEF77E10C94E91A7F928F929F92AF9210
:1036C000BF92CF92DF92EF92FF920F931F93CF930F
:1036D000DF936C015B01FC01C0818EE0C89FC02DAF
:1036E0001124DEE0DC0FD43408F0D3E46091B7039A
:1036F000669566958091B9039091BA030E94201651
:10370000182F80E4810F0E945B1690E8F92EF80EC6
:10371000812F0E945B1620E8722E780ECD1700F5DF
:103720008C2E912CF401E053FE4F9081F6018181A3
:103730008923A1F06091B4037091B5038091B60321
:10374000E12E0C2F272D4F2DF50109950E94971979
:10375000462F282F672FC4010E94E219CF5FDECFCA
:1037600081E0D33408F080E0DF91CF911F910F9179
:10377000FF90EF90DF90CF90BF90AF909F908F9091
:103780007F9008956AE377E10C945C1B68E677E12B
:103790000C945C1B6AE977E10C945C1BAF92BF92BE
:1037A000CF92DF92EF92FF920F931F93CF93DF930D
:1037B0008C017B01FC01C0818EE0C89FC02D1124CB
:1037C000DEE0DC0FD43408F0D3E42091B70331E01D
:1037D000230F08F42FEF30E040E050E06FEF7FEF71
:1037E00080E090E00E94CC2F6901CD1708F041C025
:1037F000AC2EB12CF501E053FE4F9081F801818190
:103800008923A9F19091BD03915097FD15C0292FEF
:10381000092E000C330BF901E354FC4F8189C813C6
:10382000F3CF220F331FF901E354FC4F218D328D6A
:103830002C153D0548F701C096016091B70341E0A2
:10384000640F08F46FEFC9010E942016AC0160916B
:10385000B4037091B5038091B603F70109950E94F6
:103860009719462F282F672FC5010E94E219CF5FB5
:10387000BCCF81E0D33408F080E0DF91CF911F917D
:103880000F91FF90EF90DF90CF90BF90AF90089591
:103890006DE078E10C94CE1B64E178E10C94CE1BD2
:1038A0002F923F924F925F926F927F928F929F9250
:1038B000AF92BF92CF92DF92EF92FF920F931F933E
:1038C000CF93DF93CDB7DEB729970FB6F894DEBF5D
:1038D0000FBECDBF8B834B013A01DB011C918EE003
:1038E000189F102D1124BEE0B10FB983B43410F02D
:1038F000E3E4E983F091BD03FA838981181708F0A6
:103900007FC0A12EB12CF501E053FE4F9081D40170
:1039100011968C91892309F471C02090B4033090E2
:10392000B5034B80512CC501880F991FFC01E65B44
:10393000FE4FFD83EC83C501880F991F9C01255B19
:103940003E4F3F832E83FA814F1608F047C0E42C88
:10395000F12CAC81BD81BC91EB2FF0E0F987E887B9
:10396000F701E354FC4F818128853985281B3109F3
:1039700039872887AE81BF81CC90D12C8185C81A28
:10398000D108F901EE9F9001EF9F300D300D112409
:10399000CC9CC001CD9C900D900D1124820F931FE3
:1039A0000E942A16082F6091B70321E0620F08F4E5
:1039B0006FEFF701EE0FFF1FE354FC4F818D928DE7
:1039C0000E9420167C01960148855985B101852DFC
:1039D000F30109951B014394582EB5CF2091B603EE
:1039E000352D329F312D1124832FB1010E9497195B
:1039F000462F282F672FC5010E94E2191F5F7DCF38
:103A000081E09981933408F080E029960FB6F8940C
:103A1000DEBF0FBECDBFDF91CF911F910F91FF9001
:103A2000EF90DF90CF90BF90AF909F908F907F905E
:103A30006F905F904F903F902F9008952091BD031D
:103A400031E0231B08F420E04AE158E1BC01822F59
:103A50000C94501C4AE158E1BC0180E00C94501CCD
:103A60002091BD0331E0231B08F420E043E358E13B
:103A7000BC01822F0C94501C43E358E1BC0180E050
:103A80000C94501C2091BD0331E0231B08F420E06E
:103A90004BE658E1BC01822F0C94501C4BE658E1D8
:103AA000BC0180E00C94501C2091BD0331E0231B2D
:103AB00008F420E04DE958E1BC01822F0C94501C21
:103AC0004DE958E1BC0180E00C94501C2091BD03ED
:103AD00031E0231B08F420E045EB58E1BC01822FC4
:103AE0000C94501C45EB58E1BC0180E00C94501C38
:103AF000DF92EF92FF920F931F93CF93DF938C018E
:103B0000DC018C91CEE08C9FC02D1124DEE0DC0F17
:103B1000D43408F0D3E46091B4037091B50380917C
:103B2000B6030E949719F62EE72ED82ECD1798F4DB
:103B3000EC2FF0E0DF01A053BE4F8C91D80111961D
:103B40009C91982331F02D2D4F2D6E2DCF010E9489
:103B5000E219CF5FEBCF81E0D33408F080E0DF9152
:103B6000CF911F910F91FF90EF90DF900895AF924A
:103B7000BF92CF92DF92EF92FF920F931F93CF935A
:103B8000DF938C01FC01C0818EE0C89FC02D112401
:103B9000DEE0DC0FD43408F0D3E4E090B503F0901D
:103BA000B603D090B4036D2D7E2D8F2D0E949719F2
:103BB000C62EB72EA82E6091B7036D0D7E2D8F2DCA
:103BC0000E949719F62EE72ED82ECD17B8F48C2F19
:103BD00090E0FC01E053FE4F3081F8012181232366
:103BE00059F030FF04C02D2D4F2D6E2D03C02A2D0E
:103BF0004C2D6B2D0E94E219CF5FE7CF81E0D334CB
:103C000008F080E0DF91CF911F910F91FF90EF902E
:103C1000DF90CF90BF90AF900895BF92CF92DF9288
:103C2000EF92FF920F931F93CF93DF936C01FC01F0
:103C3000C0818EE0C89FC02D1124DEE0DC0FD4349B
:103C400008F0D3E40091B503B090B6032091B70318
:103C500010E4129F112D1124CD1718F5EC2EF12C24
:103C6000F701E053FE4F9081F60181818923B9F07D
:103C7000F701EE0FFF1FE55BFE4F808182958F708D
:103C80006091B403819F600D1124702F8B2D0E94D1
:103C90009719462F282F672FC7010E94E219CF5F7F
:103CA000DBCF81E0D33408F080E0DF91CF911F912A
:103CB0000F91FF90EF90DF90CF90BF900895BF924B
:103CC000CF92DF92EF92FF920F931F93CF93DF93E8
:103CD0007C01FC01C0818EE0C89FC02D1124DEE074
:103CE000DC0FD43408F0D3E4C090B503B090B60331
:103CF0002091B70330E4D32E3D2D329F312D112476
:103D0000D32ECD1738F50C2F10E0F801E053FE4FFD
:103D10009081F70181818923D9F0F801EE0FFF1F0F
:103D2000E65BFE4F6081D69EB001112495E075954B
:103D300067959A95E1F78091B403680F7C2D8B2DE0
:103D40000E949719462F282F672FC8010E94E21959
:103D5000CF5FD7CF81E0D33408F080E0DF91CF91FF
:103D60001F910F91FF90EF90DF90CF90BF9008953B
:103D7000DF92EF92FF920F931F93CF93DF938C010B
:103D8000DC01CC918EE0C89FC02D1124DEE0DC0F59
:103D9000D43408F0D3E4E090B403F090B503D090AD
:103DA000B6036091B7036695669566958091B903F1
:103DB0009091BA030E9420160E945B16805887FDDE
:103DC0008195880F282F3D2D239F212D1124822F8F
:103DD000B7010E949719F62EE72ED82ECD1798F42A
:103DE000EC2FF0E0DF01A053BE4F8C91D80111966B
:103DF0009C91982331F02D2D4F2D6E2DCF010E94D7
:103E0000E219CF5FEBCF81E0D33408F080E0DF919F
:103E1000CF911F910F91FF90EF90DF900895DF9267
:103E2000EF92FF920F931F93CF93DF93EC01FC016E
:103E3000E053FE4F9081692381F1D090B50300914A
:103E4000B6031091B403E12EF12C0E945F30282FAD
:103E5000C7018C549F4F68E671E00E94B82F8E19FD
:103E60009F0997FD0396959587959595879523705E
:103E7000612F289F600D11247D2D802F0E9497199E
:103E8000462F282F672FCE01DF91CF911F910F91E1
:103E9000FF90EF90DF900C94E219DF91CF911F918A
:103EA0000F91FF90EF90DF900895CF92DF92FF92F5
:103EB0000F931F93CF93DF938C01FC01C281C1113B
:103EC0001DC06091B70320E1620F08F46FEF80918D
:103ED000B9039091BA030E9420166AE070E00E9434
:103EE000A42F892B59F50E945F3063E470E00E9493
:103EF000B82FF80161810E940F1F20C0FC01808152
:103F0000CEE08C9FC02D11249EE0F92EFC0EF3E430
:103F1000FF1510F483E4F82ED0E0CF2CD12CCC1573
:103F2000DD053CF4F8016181CE010E940F1F21964E
:103F3000F6CFC1E0F2E4FF1508F4C0E08C2FDF916A
:103F4000CF911F910F91FF90DF90CF9008951F9315
:103F5000CF93DF93FC01E053FE4F20816223D1F029
:103F6000EC010E945F30182F0E945F308F77782F0E
:103F700020E8720F08F47FEF612F8091B6030E9452
:103F80009719462F282F672FCE01DF91CF911F91D0
:103F90000C94E219DF91CF911F910895CF92DF9297
:103FA000FF920F931F93CF93DF938C01FC01C2818B
:103FB000C1111DC06091B70320E1620F08F46FEFDB
:103FC0008091B9039091BA030E94201665E070E0D9
:103FD0000E94A42F892B59F50E945F3063E470E0A2
:103FE0000E94B82FF80161810E94A71F20C0FC0128
:103FF0008081CEE08C9FC02D11249EE0F92EFC0E16
:10400000F3E4FF1510F483E4F82ED0E0CF2CD12C8C
:10401000CC15DD053CF4F8016181CE010E94A71F9B
:104020002196F6CFC1E0F2E4FF1508F4C0E08C2F32
:10403000DF91CF911F910F91FF90DF90CF90089566
:10404000DF92EF92FF920F931F93CF93DF938C0138
:10405000DC01CC918EE0C89FC02D1124DEE0DC0F86
:10406000D43408F0D3E4E090B503F090B603D090D8
:10407000B4036091B7036695669566958091B90320
:104080009091BA030E9420160E945B16805887FD0B
:104090008195880F682F2CE0629F612D11246D0D92
:1040A0007E2D8F2D0E941C16F62EE72ED82ECD17B2
:1040B00098F4EC2FF0E0DF01A053BE4F8C91D801B3
:1040C00011969C91982331F02D2D4F2D6E2DCF01FF
:1040D0000E94E219CF5FEBCF81E0D33408F080E09B
:1040E000DF91CF911F910F91FF90EF90DF90089596
:1040F000E091B202F091B3020994CF92DF92FF9265
:104100000F931F93CF93DF93CDB7DEB728970FB6EA
:10411000F894DEBF0FBECDBF182F062FF42E0E94DD
:10412000670E882309F46FC0FF2049F0AE014F5F8E
:104130005F4F602F812F0E94BF19F82E01C0F12C14
:104140000F2D10E0809157039801280F311D293061
:1041500031056CF188E090E06C01C01AD10AB80119
:10416000685A7C4FA60188E593E00E947C30B80134
:10417000605A7C4FA60180E693E00E947C30A60145
:10418000440F551FB801660F771F60597C4F80E7B9
:1041900093E00E947C30B80168597C4FA60188E604
:1041A00093E00E947C3088E08F1980935703109130
:1041B0005703DE01119640E0842F810FF41609F1B8
:1041C00090E05D91252F30E0BC01695A7C4FF901E8
:1041D000EE0FFF1FE65BFE4F0081FB010183220F04
:1041E000331FF901E55BFE4F2081FB012187518BD5
:1041F000880F991FFC01E95AFC4F128E118E4F5FF8
:10420000DBCF8093570328960FB6F894DEBF0FBE1E
:10421000CDBFDF91CF911F910F91FF90DF90CF9095
:10422000089508950C9411210E9412210C941121DB
:1042300008950C941821CF93DF93FC01C081C150E5
:104240008EE0C89FC02D1124DEE0DC0FD43408F0CE
:10425000D3E46D2F8C2F0E9419216D2F8C2FDF91AD
:10426000CF910C9418214F925F926F927F928F9210
:104270009F92AF92BF92CF92DF92EF92FF92CF9335
:1042800060918003709181038091820390918303F8
:104290000E9488286B017C010E946D284B015C0103
:1042A00060938003709381038093820390938303D0
:1042B000A0915703E7E5F3E08A2F90E04FEF5FEF1F
:1042C00060E070E04C195D096E097F09A91799F04B
:1042D000218D328D2901612C712C441555056605FF
:1042E000770510F4815004C02C0D3D1D328F218FB5
:1042F0009F5F3296EBCF809357038091B303982F43
:10430000937021F0C82FC695C69501C0C0E090916A
:104310001D029130E1F030F09230D9F1933009F480
:1043200043C061C110921E028092B9039092BA03F9
:10433000A092BB03B092BC0389E2E7E5F3E0ADEBEA
:10434000B3E001900D928A95E1F781E02AC0909147
:104350002102C9130CC0837090E04091220250E00A
:1043600021E08417950709F420E0822F01C081E045
:104370008170809320028091B80390911F0298175A
:1043800069F180931F0240E060E080E00E947820A5
:1043900025C0C09321028370809322020E94DD1900
:1043A00083E080931D021FC18091840381110E94CC
:1043B000A219109284036091B9037091BA0380919D
:1043C000BB039091BC030E94882860317105810570
:1043D000910508F408C110921D0205C18C2F90E0D0
:1043E0008832910580F180911E028F5F80931E02BA
:1043F00082E080931D0280912002811120C0CC2395
:1044000079F20E9414218EE192E0CF91FF90EF901B
:10441000DF90CF90BF90AF909F908F907F906F90E4
:104420005F904F900C941B218EE192E00E94781DCA
:1044300090911E029F5F90931E028823C9F2CC23A5
:1044400009F4D1C0DECFFC01EC58FF4F0C94EB2FE8
:1044500080912002882309F4C4C040E060E080E03D
:104460000E947820BEC08EE192E00E94B71DE0CF8E
:104470008EE192E00E940D1EDBCF8EE192E00E9461
:104480005F1ED6CF8EE192E00E94B81ED1CF8EE1A2
:1044900092E00E943C1BCCCF8EE192E00E94401B38
:1044A000C7CF8EE192E00E94D91AC2CF8EE192E08E
:1044B0000E94DD1ABDCF8EE192E00E94681AB8CF4B
:1044C0008EE192E00E946C1AB3CF8EE192E00E94DE
:1044D000441BAECF8EE192E00E94481BA9CF8EE133
:1044E00092E00E944C1BA4CF8EE192E00E94501BF0
:1044F0009FCF8EE192E00E94701A9ACF8EE192E0F7
:104500000E94E11A95CF8EE192E00E94E51A90CFC9
:104510008EE192E00E94741A8BCF8EE192E00E94AD
:10452000C21B86CF8EE192E00E94C61B81CF8EE136
:1045300092E00E94CA1B7CCF8EE192E00E94551F40
:1045400077CF8EE192E00E94CE1F72CF8EE192E093
:104550000E9420206DCF8EE192E00E94541B68CF14
:104560008EE192E00E94581B63CF8EE192E00E94A0
:10457000481C5ECF8EE192E00E944C1C59CF8EE128
:1045800092E00E941E1D54CF8EE192E00E942A1DEF
:104590004FCF8EE192E00E94301D4ACF8EE192E033
:1045A0000E943C1D45CF8EE192E00E94421D40CF0B
:1045B0008EE192E00E944E1D3BCF8EE192E00E9480
:1045C000541D36CF8EE192E00E94601D31CF8EE106
:1045D00092E00E94661D2CCF8EE192E00E94721D37
:1045E00027CF80E025CFCF91FF90EF90DF90CF9045
:1045F000BF90AF909F908F907F906F905F904F9003
:104600000895E091AE02F091AF0209951092BD03BA
:10461000E6EDF3E08FEF9FEF8193919323E0E63E89
:10462000F207D1F710925703E0E7F3E08FEF9FEF27
:104630008193919323E0E038F207D1F70E949E0D19
:10464000811104C00E94460E0E94AA190E949A1964
:104650008091B3038C7F11F40C94AA1908950895E6
:10466000E3EBF3E0208191E09227908310921D020A
:1046700090918403892B80938403089581E00C94A6
:1046800030239091B3039370A1F0811102C0946024
:1046900007C0883210F09C6903C0880F880F982BE0
:1046A0009093B30310921D0280918403682B609352
:1046B0008403089561E00C944123682F9091B30323
:1046C000969596959F5F983210F4892F01C081E0EE
:1046D0000C94412381E00C945D23682F9091B303E7
:1046E00096959695915011F0892F01C087E20C9410
:1046F000412381E00C946D239091B303937071F08A
:104700008093B4036093B503453B08F044EB4093BA
:10471000B60380918403282B209384030895A3EB90
:10472000B3E01196EC911197F0E0282F13964C917D
:10473000139712966C91CF0108960C947C2381E01C
:104740000C948F23A3EBB3E01196EC911197F0E05A
:10475000282F13964C91139712966C91CF010897BE
:104760000C947C2381E00C94A223E3EBF3E06281C0
:1047700020E1620F08F46FEF9181282F4381892F88
:1047800090E00C947C2381E00C94B523E3EBF3E000
:10479000628120E1621B08F460E09181282F43814F
:1047A000892F90E00C947C2381E00C94C623E3EBEA
:1047B000F3E0438120E1420F08F44FEF9181282F6D
:1047C0006281892F90E00C947C2381E00C94D723A4
:1047D000E3EBF3E0438120E1421B08F440E09181E8
:1047E000282F6281892F90E00C947C2381E00C9427
:1047F000E8238093B70380918403682B609384033C
:1048000008952091B70330E1230F08F42FEF682FAC
:10481000822F0C94F92381E00C9401242091B7039A
:1048200030E1231B08F420E0682F822F0C94F92339
:1048300081E00C940E240895FC01EE0FFF1F8E0FF3
:104840009F1FFC01EA51FC4F61834083228308953E
:10485000E6EEF3E094E0EF3AF90729F08183608314
:1048600042833396F7CF089563E470E086EE93E0D9
:104870000C94DC24882311F0FA0101C0FB01099497
:104880001F93CF93DF93FB011281112309F48CC096
:10489000EC010E94DF0C8272CB3CFCE5DF0709F4DF
:1048A0006EC048F5C63CECE5DE0709F454C070F470
:1048B000C43C9CE5D90709F442C008F045C0C33C9C
:1048C000DC4509F074C00E943E2370C0C83C9CE5E2
:1048D000D90709F44AC008F443C0C93CFCE5DF0726
:1048E00009F448C0CA3CDC4509F061C046EF53E218
:1048F00065EE73E22DC0C03DECE5DE0709F450C063
:1049000088F4CD3C9CE5D90709F443C0E8F1CE3CDE
:10491000FCE5DF0709F442C0CF3CDC4509F047C0A5
:1049200085E03FC0C73D9CE5D90728F4C23DDC4582
:10493000E8F582E136C0CE35DD45C1F138C049E742
:1049400053E26AE673E204C04AE653E269E773E2BF
:104950000E943A242BC042EB53E26FE973E2F8CF96
:104960004FE953E262EB73E2F3CF44ED53E263ECC1
:1049700073E2EECF43EC53E264ED73E2E9CF45EE30
:1049800053E266EF73E2E4CF48E154E26BE074E295
:10499000DFCF4BE054E268E174E2DACF81E001C09E
:1049A0008DE00E945A2302C011E001C010E0812F67
:1049B000DF91CF911F9108956A9A2EB12B7F3EB15E
:1049C00034604FB7F894FC01CB01880F991F680F32
:1049D000791F6E0F7F1FE617F70789F0819198E026
:1049E0003EB9000000C087FF2EB9880F000000C04C
:1049F00000C000C02EB900C09A9591F7ECCF4FBF10
:104A00008FE594E00197F1F700C0000008950F933F
:104A10001F93CF93DF93C42FD22FFC018281882371
:104A2000C9F0409387030E94612890938603809386
:104A3000850380E28C0F883008F057C0C77081E092
:104A400001C0880FCA95EAF7DF91CF911F910F91AE
:104A50000C946E0480918703481330C080918503C5
:104A6000909186030E947928883C910538F510E2E0
:104A70001D0FCD17B9F080E28C0F883040F4C7705D
:104A800081E001C0880FCA95EAF70E9475041830CA
:104A900028F581E09D2F977001C0880F9A95EAF75D
:104AA0000E946E04802F0E9465041830F0F4D770C5
:104AB00081E001C0880FDA95EAF70AC080E28C0F26
:104AC000883098F4C77081E001C0880FCA95EAF772
:104AD000DF91CF911F910F910C947504802FDF917E
:104AE000CF911F910F910C946504DF91CF911F918D
:104AF0000F9108950F939C01CB01243F4CE534079F
:104B000031F188F4293DFCE53F07D9F02A3D4CE519
:104B1000340779F1283D3C45A9F506E221EE41EE46
:104B200068ED7CE52BC0263FFCE53F07E1F0A8F0EF
:104B3000273F3C4539F507E225EE46EE67EF7CE579
:104B40001DC007E225EE45EE69ED7CE517C006E2E3
:104B500021EE40EE64EF7CE511C007E225EE44EE65
:104B600065EF7CE50BC006E221EE42EE66EF7CE5E8
:104B700005C008E221E045EE6AED7CE50E940725CC
:104B800080E008C0FC018281882319F0109287031D
:104B900001C081E00F910895CF93DF93EC01FB01F9
:104BA0008281882309F426C1C430FDE5DF0760F463
:104BB000CB3F9CE5D90768F49E0122503C45243147
:104BC000310508F018C105C0C236EDE5DE0709F071
:104BD00012C10E94B10D90939E0380939D03C0313A
:104BE000FCE5DF0709F4CAC008F041C0C8309CE505
:104BF000D90709F4A4C0F0F4C430FCE5DF0709F4D8
:104C00008CC068F4C2309CE5D90709F482C0C33077
:104C1000DC4509F0E5C080919D038260DFC0C630AD
:104C2000FCE5DF0709F483C008F085C080919D038F
:104C30008860D4C0CC309CE5D90709F490C068F4F2
:104C4000CA30FCE5DF0709F47EC008F084C00E948A
:104C5000FB0680919D038068C1C0CE309CE5D907DA
:104C600009F481C008F086C080919D0394C0CD3FB7
:104C7000FCE5DF0709F47BC038F5C4319CE5D907B2
:104C800009F49AC058F4C231FCE5DF0709F47AC090
:104C900008F07EC080919D038F7BA0C0CB3F9CE538
:104CA000D907F1F108F03FC0C531DC4509F098C0E3
:104CB00080919D0382FB222720F991E0922790FBAF
:104CC00082F990FB83F98AC0C1308DE5D80709F4D9
:104CD00067C050F480919E03CF3FECE5DE07C1F141
:104CE00008F05BC08D7F65C0C3308DE5D80709F43F
:104CF00071C008F46DC0C236DD4509F071C0809105
:104D00009D0384FB222720F991E0922790FB84F9F0
:104D100065C080919D03816061C080919D0316C034
:104D200080919E0316C080919E03826042C0809154
:104D30009D03806153C080919D0380624FC080912C
:104D40009D0380644BC080919D038860846046C051
:104D5000826081602EC080919D038E7F3FC08091D4
:104D60009D038D7F3BC080919D03877F37C08091DD
:104D70009E0314C080919D038F7E30C080919D035F
:104D80008F7D2CC00E94FB0680919D038F7726C0EB
:104D900080919D03877F8B7F21C08D7F8E7F09C08F
:104DA00080919E03982F909591708E7F892B90FB18
:104DB00081F980939E0314C00E94FB0680919D039D
:104DC00087FB222720F991E0922790FB87F906C004
:104DD00081E001C080E00E94480E02C080939D03E4
:104DE00080919D0390919E030E94C20D0E94FB063C
:104DF00080E001C081E0DF91CF910895CF93DF93F0
:104E000086319C4541F5EB010E94DF0C982F8A8189
:104E10002091130230911402882379F09A7A81E06C
:104E200009F480E080938803911102C069E201C017
:104E300065E3C9010E94C7270AC0809188038111D8
:104E400002C069E201C065E3C9010E94C9270E944E
:104E5000310D80E001C081E0DF91CF910895909302
:104E60008E0380938D030895E0918D03F0918E035E
:104E7000309721F00190F081E02D099480E00895B1
:104E8000E0918D03F0918E03309721F00280F38141
:104E9000E02D09940895E0918D03F0918E033097F1
:104EA00039F022E0DC012C930480F581E02D099497
:104EB000089520918B0330918C032817390771F0E6
:104EC00090938C0380938B03E0918D03F0918E037C
:104ED000309721F00680F781E02D09940895209104
:104EE000890330918A032817390771F090938A0358
:104EF00080938903E0918D03F0918E03309721F028
:104F00000084F185E02D09940895FC01329697E024
:104F100080E0915029F021912223D9F38F5FF9CFBE
:104F20000895662349F0FC01329608962191621794
:104F300029F0E817F907D1F780E0089581E0089596
:104F40009C01FC0132969FEF80E04191461789F069
:104F50009F3F19F4411101C0982F8F5F8630A9F748
:104F60009F3F39F0F901E90FF11D97FDFA95628332
:104F7000089508959C012A5F3F4FFC01428146132A
:104F800001C01282019682179307B9F708950C9415
:104F9000A0270C94BA27029626E0FC0111922A95CC
:104FA000E9F70895089508950C94D3270C94D32716
:104FB000CF930E94D6270E9468120E94D427C0E097
:104FC0008C2F0E948B11892B29F4CF5FC530C1F73C
:104FD00080E001C081E0CF9108950C94D3270C9418
:104FE000ED278091B704843061F10E94EF2780E0C3
:104FF0000E946B0381E00E942F2310928F0320E414
:1050000088E190E00FB6F894A895809360000FBEF9
:105010002093600083B7817F846083BF83B7816002
:1050200083BF7894889583B78E7F83BF0FB6F8943B
:10503000A895809160008861809360001092600064
:105040000FBE08950C94D3270E94FB060E943427BC
:105050000E946B0380E00E942F230C9422281F9251
:105060000F920FB60F9211248F939F93AF93BF931C
:1050700080918F03811113C08091AF049091B0048F
:10508000A091B104B091B2044196A11DB11D8093CD
:10509000AF049093B004A093B104B093B204BF9155
:1050A000AF919F918F910F900FBE0F901F90189509
:1050B00082E084BD93E095BD9AEF97BD80936E002A
:1050C00008952FB7F8948091AF049091B004A09107
:1050D000B104B091B2042FBF08952FB7F894609136
:1050E000AF047091B0048091B1049091B2042FBFCD
:1050F00008959C014FB7F8948091AF049091B0044B
:10510000A091B104B091B2044FBF821B930B0895DC
:10511000CF92DF92EF92FF922FB7F894C090AF0436
:10512000D090B004E090B104F090B2042FBFA7017A
:105130009601261B370B480B590BCA01B901FF908A
:10514000EF90DF90CF90089578941F920F920FB652
:105150000F9211248F939F93AF93BF938091AF04CD
:105160009091B004A091B104B091B2040196A11D38
:10517000B11D8093AF049093B004A093B104B09399
:10518000B204BF91AF919F918F910F900FBE0F907E
:105190001F90189581E08093E00080E28093D80012
:1051A0001092C9008FE19EE40197F1F700C0000062
:1051B00087E090EBDC018093C0049093C104A0933E
:1051C000C204B093C3049CE088E10FB6F894A8959C
:1051D000809360000FBE90936000FFCF9093B70262
:1051E0008093B602089580919B0308959091B7042F
:1051F000943031F580939003709392036093910300
:1052000082E08093E9008FEF9091E800815095FD56
:1052100006C095ED9A95F1F700008111F5CF8091C8
:10522000E80085FF0DC040E050E063E070E080E9F9
:1052300093E00E94062B8091E8008E778093E8002F
:105240000895BC0184E00C94F628BC0183E00C9422
:10525000F62822E02093E9002FEF3091E80021505A
:1052600035FD06C035ED3A95F1F700002111F5CF77
:105270002091E80025FF0BC040E050E066E070E0C0
:105280000E94062B8091E8008E778093E8000895B5
:10529000CF93DF9321E02093E9002FEF3091E800D6
:1052A000215035FD06C035ED3A95F1F7000021118A
:1052B000F5CF2091E80025FF14C0EC0140E050E05C
:1052C00068E070E00E94062B8091E8008E77809362
:1052D000E80088E0FE01A3E9B3E001900D928A9511
:1052E000E1F7DF91CF9108958091B604811109C053
:1052F0000E94972C0E94F42C8091E200846080939D
:10530000E20008951092B60408950895089508954E
:1053100042E061EC81E00E94102C42E261EC82E00C
:105320000C94102C8091B904833009F460C030F4DF
:10533000813071F0823009F499C008958A3009F4FF
:1053400085C08B3009F46BC0893009F0A7C020C03C
:105350008091B804813A09F0A1C08091E800877F6C
:105360008093E8008091BC049091BD04892B21F4C6
:1053700068E083E993E003C060E080E090E070E0E3
:105380000E94512B8091E8008B778093E80008956C
:105390008091B804813209F081C08091BC04909161
:1053A000BD04029708F07AC08091E800877F80935F
:1053B000E8008091E80082FD05C08091B70481116A
:1053C000F8CF6CC02091F3008091F20090E0922B16
:1053D000029729F48091F1008B7F813021F4809134
:1053E000F10080939B038091E8008B7753C08091FC
:1053F000B804813A09F052C08091BC049091BD0478
:10540000892B09F04BC08091E800877F8093E800EA
:105410008091E80080FFFCCF80912D0236C0809102
:10542000B8048132D9F58091BC049091BD04892BD8
:10543000A9F58091E800877F8093E8000E94452CC1
:105440008091BA0480932D020C94FB068091B804DD
:10545000813221F58091E800877F8093E8000E94E7
:10546000452C8091BB0480939C0308958091B804DF
:10547000813AA1F48091E800877F8093E8008091D1
:10548000E80080FFFCCF80919C038093F100809125
:10549000E8008E778093E8000C94452C089584B73B
:1054A000877F84BF0FB6F894A895809160008861CB
:1054B00080936000109260000FBE90E080E80FB60D
:1054C000F89480936100909361000FBE0C94780E65
:1054D0000E94972C0E94F42CE2EEF0E08081846020
:1054E000808378940E94892F0E94860E83E292E046
:1054F0000C942F278091B7048530A9F48091B704CC
:10550000853079F40E94F1278091B5048823B1F3A6
:105510000E94D827882391F30E94F02A0E94FB065C
:10552000EDCF0E9424280C948C0E0C94972A292FDE
:10553000332723303105C9F060F42130310581F083
:105540002230310509F044C08BE390E022EA33E0D9
:1055500043C021323105E1F02232310549F138C032
:1055600082E190E02DED33E037C09927813091053D
:1055700049F028F0029761F5E4E6F3E005C0EEE9B2
:10558000F3E002C0E4E8F3E0849190E09F0124C0DE
:105590006115710541F061307105D1F489E090E049
:1055A0002DEC33E019C089E090E024EB33E014C027
:1055B0006115710541F06130710551F48BE790E0A0
:1055C0002FEE33E009C080E490E02AE634E004C026
:1055D00080E090E020E030E0FA01318320830895FC
:1055E00080E189BD82E189BD09B400FEFDCF8091D3
:1055F000D8008F7D8093D8008091E00082608093F6
:10560000E0008091E00081FDFCCF0895CF92DF9211
:10561000EF92FF920F931F93CF93DF93EC018B01D7
:105620007A010E94642C811133C0E114F10439F035
:10563000F70180819181081B190BC80FD91FC12C5C
:10564000D12C0115110519F18091E80085FD16C0D6
:105650008091E8008E778093E800E114F10449F02E
:10566000F70180819181C80ED91ED182C08285E068
:105670000FC00E94642C882321F30AC08991809373
:10568000F10001501109FFEFCF1ADF0ADACF80E0F5
:10569000DF91CF911F910F91FF90EF90DF90CF900E
:1056A00008952091BE043091BF042617370748F0B3
:1056B0006115710539F42091E8002E772093E800F8
:1056C00001C0B901FC0120E06115710579F18091FB
:1056D000B7048823F1F18530F1F18091E80083FD72
:1056E0003CC08091E80082FD2EC08091E80080FFE0
:1056F000EBCF2091F3008091F20090E0922B6115A6
:10570000710551F08830910538F421912093F10012
:10571000615071090196F3CF21E0089709F020E06C
:105720008091E8008E778093E800CECF2111CFCF13
:105730000AC08091B704882361F0853061F08091C0
:10574000E80083FD0AC08091E80082FFF2CF80E08C
:10575000089582E0089583E0089581E008952091FE
:10576000BE043091BF042617370748F06115710554
:1057700039F42091E8002E772093E80001C0B901A8
:10578000FC0120E06115710591F18091B704882337
:1057900009F440C0853009F43FC08091E80083FDE2
:1057A0003DC08091E80082FD2FC08091E80080FF1D
:1057B000E9CF2091F3008091F20090E0922B6115E7
:1057C000710559F08830910540F424912093F1003F
:1057D0003196615071090196F2CF21E0089709F0E6
:1057E00020E08091E8008E778093E800CBCF2111F4
:1057F000CCCF0AC08091B704882361F0853061F076
:105800008091E80083FD0AC08091E80082FFF2CF1A
:1058100080E0089582E0089583E0089581E008958E
:10582000982F973068F59093E900981739F07091A8
:10583000EC002091ED005091F00003C0242F762F52
:1058400050E021FD02C09F5FECCF3091EB003E7F26
:105850003093EB003091ED003D7F3093ED003091BF
:10586000EB0031603093EB007093EC002093ED007F
:105870005093F0002091EE0027FDE5CF80E00895E1
:105880008F708093E90081E008958091B80487FFCC
:1058900011C08091E80082FD05C08091B70481119C
:1058A000F8CF11C08091E8008B770BC08091B704CE
:1058B000882349F08091E80080FFF8CF8091E800CC
:1058C0008E778093E80008952091E4003091E50000
:1058D00095E64091EC00842F817040FF23C08091B9
:1058E000E80080FD1DC08091B704882399F08530C1
:1058F00099F08091EB0085FD11C04091E40050913A
:10590000E5002417350729F3915011F09A01E1CFF2
:1059100084E0089582E0089583E0089581E0089589
:1059200080E008954091E80042FFDDCF08950E9495
:10593000052D0E940D2DE0EEF0E0808181608083D6
:10594000E8EDF0E080818F77808319BCA7EDB0E0AF
:105950008C918E7F8C9380818F7E80831092B60491
:1059600008950F931F93CF93DF930E94052D0E94FC
:105970000D2DC8EDD0E088818F778883888180687D
:10598000888388818F7D888319BC1092B704109218
:10599000B3041092B5041092B40400EE10E0F801C4
:1059A00080818B7F808388818160888342E060E092
:1059B00080E00E94102CE1EEF0E080818E7F8083F9
:1059C000E2EEF0E080818160808380818860808366
:1059D000F80180818E7F8083888180618883DF9158
:1059E000CF911F910F910895E8EDF0E080818F7EB7
:1059F0008083E7EDF0E080818160808384E082BF76
:105A000081E08093B6040C94B12CE8EDF0E0808145
:105A10008E7F80831092E20008951092DA00109237
:105A2000E10008951F920F920FB60F9211242F9349
:105A30003F934F935F936F937F938F939F93AF9316
:105A4000BF93EF93FF938091E10082FF0BC08091A1
:105A5000E20082FF07C08091E1008B7F8093E1002C
:105A60000E94882F8091DA0080FF1FC08091D800AB
:105A700080FF1BC08091DA008E7F8093DA008091D6
:105A8000D90080FF0DC080E189BD82E189BD09B4E4
:105A900000FEFDCF81E08093B7040E94742905C009
:105AA00019BC1092B7040E9482298091E10080FF06
:105AB00019C08091E20080FF15C08091E2008E7FC6
:105AC0008093E2008091E20080618093E200809107
:105AD000D80080628093D80019BC85E08093B70419
